:100000001CC0000000000000000000000000000014
:1000100000000000000000000000000000000000E0
:1000200000000000000000000C941C000C941C0058
:10003000000000000C941C00189508E00EBF0FEFA4
:100040000DBF00E00093C1000C942600259A99276B
:10005000E0EBF0E0953029F015910E943600939581
:10006000F9CF84E60E945B000C942700C12FC29553
:10007000CF70D12FDF70C03039F00D2F01700E948A
:100080004800CA95D695F7CF82E30E945B00189589
:100090002D9A013021F08AE00E945B0004C08EE1BD
:1000A0000E945B0000C02D988AE00E945B001895BA
:1000B0002320421021000F921F938F9300241CE9EC
:1000C0000A940000E9F71A95D9F78A95C1F78F913C
:0600D0001F910F9008953E
:00000001FF
